{"abi":[{"type":"function","name":"chargePayee","inputs":[{"name":"policyId","type":"uint256","internalType":"uint256"}],"outputs":[],"stateMutability":"nonpayable"},{"type":"function","name":"consumersPolicies","inputs":[{"name":"consumer","type":"address","internalType":"address"},{"name":"","type":"uint256","internalType":"uint256"}],"outputs":[{"name":"merchant","type":"address","internalType":"address"},{"name":"consumer","type":"address","internalType":"address"},{"name":"amountUSD","type":"uint256","internalType":"uint256"},{"name":"intervalPaid","type":"bool","internalType":"bool"},{"name":"intervalDuration","type":"uint256","internalType":"uint256"}],"stateMutability":"view"},{"type":"function","name":"merchantsPolicies","inputs":[{"name":"merchant","type":"address","internalType":"address"},{"name":"","type":"uint256","internalType":"uint256"}],"outputs":[{"name":"merchant","type":"address","internalType":"address"},{"name":"consumer","type":"address","internalType":"address"},{"name":"amountUSD","type":"uint256","internalType":"uint256"},{"name":"intervalPaid","type":"bool","internalType":"bool"},{"name":"intervalDuration","type":"uint256","internalType":"uint256"}],"stateMutability":"view"},{"type":"function","name":"policies","inputs":[{"name":"policyId","type":"uint256","internalType":"uint256"}],"outputs":[{"name":"merchant","type":"address","internalType":"address"},{"name":"consumer","type":"address","internalType":"address"},{"name":"amountUSD","type":"uint256","internalType":"uint256"},{"name":"intervalPaid","type":"bool","internalType":"bool"},{"name":"intervalDuration","type":"uint256","internalType":"uint256"}],"stateMutability":"view"}],"bytecode":{"object":"0x6080604052348015600e575f5ffd5b506104698061001c5f395ff3fe608060405234801561000f575f5ffd5b506004361061004a575f3560e01c8063642c8adf1461004e578063d3e8948314610082578063dbdadf90146100b6578063fea72b34146100d2575b5f5ffd5b61006860048036038101906100639190610341565b610106565b6040516100799594939291906103b7565b60405180910390f35b61009c60048036038101906100979190610408565b61019c565b6040516100ad9594939291906103b7565b60405180910390f35b6100d060048036038101906100cb9190610408565b610218565b005b6100ec60048036038101906100e79190610341565b61021b565b6040516100fd9594939291906103b7565b60405180910390f35b6001602052815f5260405f20818154811061011f575f80fd5b905f5260205f2090600502015f9150915050805f015f9054906101000a900473ffffffffffffffffffffffffffffffffffffffff1690806001015f9054906101000a900473ffffffffffffffffffffffffffffffffffffffff1690806002015490806003015f9054906101000a900460ff16908060040154905085565b6002602052805f5260405f205f91509050805f015f9054906101000a900473ffffffffffffffffffffffffffffffffffffffff1690806001015f9054906101000a900473ffffffffffffffffffffffffffffffffffffffff1690806002015490806003015f9054906101000a900460ff16908060040154905085565b50565b5f602052815f5260405f208181548110610233575f80fd5b905f5260205f2090600502015f9150915050805f015f9054906101000a900473ffffffffffffffffffffffffffffffffffffffff1690806001015f9054906101000a900473ffffffffffffffffffffffffffffffffffffffff1690806002015490806003015f9054906101000a900460ff16908060040154905085565b5f5ffd5b5f73ffffffffffffffffffffffffffffffffffffffff82169050919050565b5f6102dd826102b4565b9050919050565b6102ed816102d3565b81146102f7575f5ffd5b50565b5f81359050610308816102e4565b92915050565b5f819050919050565b6103208161030e565b811461032a575f5ffd5b50565b5f8135905061033b81610317565b92915050565b5f5f60408385031215610357576103566102b0565b5b5f610364858286016102fa565b92505060206103758582860161032d565b9150509250929050565b610388816102d3565b82525050565b6103978161030e565b82525050565b5f8115159050919050565b6103b18161039d565b82525050565b5f60a0820190506103ca5f83018861037f565b6103d7602083018761037f565b6103e4604083018661038e565b6103f160608301856103a8565b6103fe608083018461038e565b9695505050505050565b5f6020828403121561041d5761041c6102b0565b5b5f61042a8482850161032d565b9150509291505056fea26469706673582212208d7b6056e8ad99ca582f67d84e65b22bd60785ae79e0ebc9b2a3152c78053a5064736f6c634300081e0033","linkReferences":{}},"methodIdentifiers":{"chargePayee(uint256)":"dbdadf90","consumersPolicies(address,uint256)":"fea72b34","merchantsPolicies(address,uint256)":"642c8adf","policies(uint256)":"d3e89483"},"id":1}